:100000000C9434000C9451000C9451000C94510049
:100010000C9451000C9451000C9451000C9451001C
:100020000C9451000C9451000C9451000C9451000C
:100030000C9451000C9451000C9451000C945100FC
:100040000C9451000C9451000C9451000C945100EC
:100050000C9451000C9451000C9451000C945100DC
:100060000C9451000C94510011241FBECFEFD8E026
:10007000DEBFCDBF11E0A0E0B1E0ECECF9E102C0E1
:1000800005900D92AA30B107D9F711E0AAE0B1E0CE
:1000900001C01D92AF31B107E1F70E94B20A0C9482
:1000A000E40C0C9400008BB188668BB92B9A0895F0
:1000B0005D985E9A08955B982B9A0895609100016F
:1000C0007091010120E030E040E050E01EC02F5F61
:1000D0003F4F2436310518F020E030E003C02431D2
:1000E000310530F45D985E9A2431310530F007C057
:1000F0008BB188668BB92B9A02C05B9803C08BB119
:1001000088668BB92B9A4F5F5F4F64177507FCF6B3
:100110008BB188668BB92B9A08955D9A5E98089585
:100120002B985B9A0895609100017091010120E085
:1001300030E040E050E01FC02F5F3F4F24363105D4
:1001400018F020E030E003C02431310530F45D9A2E
:100150005E982431310530F008C08BB188668BB9C8
:100160002B9A03C02B985B9A04C08BB188668BB91D
:100170002B9A4F5F5F4F64177507F4F68BB1886653
:100180008BB92B9A089520E030E040E050E02F5FDB
:100190003F4F2436310518F020E030E003C0243111
:1001A000310530F45D985E9A2431310530F008C095
:1001B0008BB188668BB92B9A03C05B9A2B9804C0CD
:1001C0008BB188668BB92B9A4F5F5F4F81E04E39B8
:1001D0005807E9F6089520E030E040E050E02F5F56
:1001E0003F4F2436310518F020E030E003C02431C1
:1001F000310530F45E985D9A2431310530F008C045
:100200008BB188668BB92B9A03C02B9A5B9804C07C
:100210008BB188668BB92B9A4F5F5F4F81E04E3967
:100220005807E9F60895CF93DF938091080180FD88
:100230000AC0C0E0D0E00E94EB00219681E0CE39F8
:10024000D807C9F709C0C0E0D0E00E94C3002196DA
:1002500081E0CE39D807C9F7809108019091090152
:1002600001969093090180930801DF91CF91089541
:10027000CF93DF9380911A0180FD0AC0C0E0D0E0E7
:100280000E94EB00219681E0CE39D807C9F709C05A
:10029000C0E0D0E00E94C300219681E0CE39D807AB
:1002A000C9F780911A0190911B01019690931B014F
:1002B00080931A01DF91CF9108950F931F9380913E
:1002C00016019091170101969093170180931601E2
:1002D00086E060E00E947A0C0CE111E0809116014A
:1002E00090911701B8014AE050E00E949F0CC801AC
:1002F0000E946E0C1F910F91089530990AC087E7F4
:100300008093020181E090E090930B0180930A01B9
:1003100007C082E68093020110920B0110920A013D
:1003200031990AC087E78093030181E090E09093C0
:100330000D0180930C0107C082E6809303011092A7
:100340000D0110920C0132990AC087E780930401D5
:1003500081E090E090930F0180930E0107C082E648
:100360008093040110920F0110920E0133990AC07C
:1003700087E78093050181E090E0909311018093DD
:10038000100107C082E680930501109211011092BE
:10039000100134990AC087E78093060181E090E05C
:1003A000909313018093120107C082E680930601A7
:1003B000109213011092120181E063E00E947A0C06
:1003C00082E091E00E946E0C0895CF93DF938091BC
:1003D0000A0190910B01019709F045C080910C0131
:1003E00090910D01019709F03EC080910E0190910E
:1003F0000F010197C1F580911001909111010197B2
:1004000091F58091120190911301019761F58BB1E3
:1004100088668BB92B9A0E945D018CE291E09093E3
:10042000010180930001C0E0D0E009C00E94930068
:100430000E947D018BB188668BB92B9A21968091A1
:100440000001909101018C179D0784F7C0E0D0E076
:100450000E94EB00219686E0C537D807C9F78BB11B
:1004600088668BB92B9A80910A0190910B01892B98
:1004700009F042C080910C0190910D010197E1F5C6
:1004800080910E0190910F010197B1F580911001BB
:1004900090911101019781F58091120190911301C2
:1004A000892B51F58BB188668BB92B9A8CE291E040
:1004B0009093010180930001C0E0D0E009C00E9448
:1004C00093000E947D018BB188668BB92B9A21968F
:1004D00080910001909101018C179D0784F7C0E085
:1004E000D0E00E94EB00219686E0C537D807C9F717
:1004F0008BB188668BB92B9ADF91CF910895CF93FA
:10050000DF938BB188668BB92B9A0E947D01809115
:100510000A0190910B01019781F480910E01909155
:100520000F01892B51F480911201909113010197D1
:1005300021F40E945E000E947D0180910A01909149
:100540000B01019701F580910C0190910D0101972C
:10055000D1F480910E0190910F010197A1F4809147
:10056000100190911101892B71F4809112019091E9
:100570001301019741F4C0E0D0E00E94C30021962E
:10058000CF31D105D1F780910A0190910B010197EC
:1005900001F580910C0190910D01892BD1F480918E
:1005A0000E0190910F010197A1F48091100190919B
:1005B0001101019771F4809112019091130101973B
:1005C00041F4C0E0D0E00E94EB002196CF31D1058C
:1005D000D1F780910A0190910B01892BE1F4809170
:1005E0000C0190910D01892BB1F480910E01909135
:1005F0000F01892B81F48091100190911101892BB9
:1006000051F48091120190911301892B21F40E94E1
:100610005E000E947D0180910A0190910B0101977B
:10062000F1F480910C0190910D01892BC1F480911E
:100630000E0190910F01892B91F4809110019091FE
:100640001101892B61F48091120190911301892B82
:1006500031F40E94C3000E94C3000E947D0180917A
:100660000A0190910B01892BF1F480910C0190917A
:100670000D01892BC1F480910E0190910F01892BFE
:1006800091F48091100190911101892B61F4809176
:10069000120190911301019731F40E94EB000E9426
:1006A000EB000E947D0180910A0190910B0101975E
:1006B000E1F480910C0190910D01892BB1F48091AE
:1006C0000E0190910F01019781F48091100190919A
:1006D0001101019751F4809112019091130101973A
:1006E00021F40E945E000E947D0180910A01909198
:1006F0000B01892BE1F480910C0190910D01892B64
:10070000B1F480910E0190910F01892B81F48091B9
:10071000100190911101019751F480911201909173
:100720001301892B21F40E945E000E947D018091BB
:100730000A0190910B01892B09F040C080910C01B6
:1007400090910D01892BD1F580910E0190910F01AF
:10075000892BA1F58091100190911101019771F5FC
:100760008091120190911301019741F58BB1886638
:100770008BB92B9A8CE291E0909301018093000158
:10078000C0E0D0E009C00E945E000E947D018BB1F4
:1007900088668BB92B9A2196809100019091010176
:1007A0008C179D0784F7C0E0D0E00E94EB002196F3
:1007B00081E0CE39D807C9F70E947D0180910A01F6
:1007C00090910B01892B09F040C080910C01909110
:1007D0000D01892BD1F580910E0190910F010197A8
:1007E000A1F58091100190911101019771F580910F
:1007F000120190911301019741F58BB188668BB975
:100800002B9A8CE291E09093010180930001C0E06B
:10081000D0E009C00E945E000E947D018BB1886615
:100820008BB92B9A219680910001909101018C1730
:100830009D0784F7C0E0D0E00E94EB00219681E0A4
:10084000CE39D807C9F70E947D0180910C019091A3
:100850000D01892B31F08091100190911101892BAC
:1008600011F40E945E0080910A0190910B01892B86
:10087000E1F480910C0190910D010197B1F4809108
:100880000E0190910F01892B81F4809110019091BC
:100890001101892B51F4809112019091130101975C
:1008A00021F40E945E000E947D0180910A019091D6
:1008B0000B01892BE1F480910C0190910D010197BE
:1008C000B1F480910E0190910F01892B81F48091F8
:1008D000100190911101892B51F480911201909196
:1008E0001301892B21F40E945E000E947D018091FA
:1008F0000A0190910B01892BE1F480910C019091F8
:100900000D010197B1F480910E0190910F010197B3
:1009100081F48091100190911101892B51F4809103
:10092000120190911301892B21F40E945E000E9414
:100930007D0180910A0190910B01892BE1F4809156
:100940000C0190910D010197B1F480910E019091ED
:100950000F01019781F48091100190911101892B71
:1009600051F48091120190911301019721F40E949A
:100970005E000E947D0180910A0190910B01892BFC
:1009800009F040C080910C0190910D010197D1F5C3
:1009900080910E0190910F010197A1F580911001B6
:1009A00090911101019771F58091120190911301BD
:1009B000892B41F58BB188668BB92B9A8CE291E03B
:1009C0009093010180930001C0E0D0E009C00E9433
:1009D0005E000E947D018BB188668BB92B9A2196AF
:1009E00080910001909101018C179D0784F7C0E070
:1009F000D0E00E94EB00219681E0CE39D807C9F7FC
:100A00000E947D0180910A0190910B01019709F0EC
:100A100040C080910C0190910D010197D1F580911A
:100A20000E0190910F01892BA1F5809110019091F9
:100A30001101892B71F58091120190911301892B7D
:100A400041F58BB188668BB92B9A8CE291E090933B
:100A5000010180930001C0E0D0E009C00E945E0067
:100A60000E947D018BB188668BB92B9A219680916B
:100A70000001909101018C179D0784F7C0E0D0E040
:100A80000E94C300219681E0CE39D807C9F70E94A1
:100A90007D0180910A0190910B010197F1F4809101
:100AA0000C0190910D010197C1F480910E0190917C
:100AB0000F01019791F48091100190911101892B00
:100AC00061F48091120190911301892B31F48BB163
:100AD00088668BB92B9A0E947D010E94E501DF9107
:100AE000CF910895CF93DF938BB188668BB92B9A02
:100AF0000E947D0180910A0190910B01019781F480
:100B000080910E0190910F01892B51F48091120177
:100B100090911301019721F40E945E000E947D01D3
:100B200080910A0190910B01019701F580910C01D0
:100B300090910D010197D1F480910E0190910F01D8
:100B40000197A1F48091100190911101892B71F40A
:100B50008091120190911301019741F4C0E0D0E01F
:100B60000E94C3002196CF31D105D1F780910A01AF
:100B700090910B01019701F580910C0190910D016D
:100B8000892BD1F480910E0190910F010197A1F46E
:100B90008091100190911101019771F480911201DF
:100BA00090911301019741F4C0E0D0E00E94EB0066
:100BB0002196CF31D105D1F780910A0190910B0197
:100BC000892BE1F480910C0190910D01892BB1F4F6
:100BD00080910E0190910F01892B81F48091100179
:100BE00090911101892B51F4809112019091130180
:100BF000892B21F40E945E000E947D0180910A01F0
:100C000090910B010197F1F480910C0190910D01ED
:100C1000892BC1F480910E0190910F01892B91F4E1
:100C20008091100190911101892B61F48091120142
:100C300090911301892B31F40E94C3000E94C300DC
:100C40000E947D0180910A0190910B01892BF1F4A2
:100C500080910C0190910D01892BC1F480910E01BE
:100C600090910F01892B91F48091100190911101C5
:100C7000892B61F48091120190911301019731F455
:100C80000E94EB000E94EB000E947D0180910A010E
:100C900090910B010197E1F480910C0190910D016D
:100CA000892BB1F480910E0190910F01019781F48D
:100CB0008091100190911101019751F480911201DE
:100CC00090911301019721F40E945E000E947D0122
:100CD00080910A0190910B01892BE1F480910C0124
:100CE00090910D01892BB1F480910E0190910F012B
:100CF000892B81F48091100190911101019751F499
:100D00008091120190911301892B21F40E945E00C1
:100D10000E947D0180910A0190910B01892B09F0BD
:100D200040C080910C0190910D01892BD1F58091EB
:100D30000E0190910F01892BA1F5809110019091E6
:100D40001101019771F580911201909113010197A2
:100D500041F58BB188668BB92B9A8CE291E0909328
:100D6000010180930001C0E0D0E009C00E945E0054
:100D70000E947D018BB188668BB92B9A2196809158
:100D80000001909101018C179D0784F7C0E0D0E02D
:100D90000E94EB00219681E0CE39D807C9F70E9466
:100DA0007D0180910A0190910B01892B09F040C0CF
:100DB00080910C0190910D01892BD1F580910E014C
:100DC00090910F010197A1F580911001909111016F
:100DD000019771F58091120190911301019741F5EE
:100DE0008BB188668BB92B9A8CE291E090930101CC
:100DF00080930001C0E0D0E009C00E945E000E9424
:100E00007D018BB188668BB92B9A21968091000168
:100E1000909101018C179D0784F7C0E0D0E00E94FB
:100E2000EB00219681E0CE39D807C9F70E947D01F9
:100E300080910C0190910D01892B31F0809110016E
:100E400090911101892B11F40E945E0080910A019A
:100E500090910B01892BE1F480910C0190910D018F
:100E60000197B1F480910E0190910F01892B81F4CB
:100E70008091100190911101892B51F48091120100
:100E800090911301019721F40E945E000E947D0160
:100E900080910A0190910B01892BE1F480910C0162
:100EA00090910D010197B1F480910E0190910F0185
:100EB000892B81F48091100190911101892B51F4BB
:100EC0008091120190911301892B21F40E945E0000
:100ED0000E947D0180910A0190910B01892BE1F420
:100EE00080910C0190910D010197B1F480910E0158
:100EF00090910F01019781F480911001909111015F
:100F0000892B51F48091120190911301892B21F4C6
:100F10000E945E000E947D0180910A0190910B0168
:100F2000892BE1F480910C0190910D010197B1F4AE
:100F300080910E0190910F01019781F48091100131
:100F400090911101892B51F480911201909113011C
:100F5000019721F40E945E000E947D0180910A01A8
:100F600090910B01892B09F040C080910C01909168
:100F70000D010197D1F580910E0190910F0101971C
:100F8000A1F58091100190911101019771F5809167
:100F9000120190911301892B41F58BB188668BB9B1
:100FA0002B9A8CE291E09093010180930001C0E0C4
:100FB000D0E009C00E945E000E947D018BB188666E
:100FC0008BB92B9A219680910001909101018C1789
:100FD0009D0784F7C0E0D0E00E94C300219681E025
:100FE000CE39D807C9F70E947D0180910A019091FE
:100FF0000B01019709F040C080910C0190910D0107
:101000000197D1F580910E0190910F01892BA1F5E7
:101010008091100190911101892B71F5809112013D
:1010200090911301892B41F58BB188668BB92B9A6E
:101030008CE291E09093010180930001C0E0D0E048
:1010400009C00E945E000E947D018BB188668BB949
:101050002B9A219680910001909101018C179D0798
:1010600084F7C0E0D0E00E94C300219681E0CE3931
:10107000D807C9F70E947D0180910A0190910B0168
:101080000197F1F480910C0190910D010197C1F449
:1010900080910E0190910F01019791F480911001C0
:1010A00090911101892B61F48091120190911301AB
:1010B000892B31F48BB188668BB92B9A0E947D0104
:1010C0000E94E501DF91CF910895CF93DF938BB11B
:1010D00088668BB92B9A0E947D0180910A019091BC
:1010E0000B01019781F480910E0190910F01892BE2
:1010F00051F48091120190911301019721F40E9403
:101100005E000E947D0180910A0190910B01019780
:1011100001F580910C0190910D010197D1F480911E
:101120000E0190910F010197A1F48091100190910F
:101130001101892B71F48091120190911301019793
:1011400041F4C0E0D0E00E94C3002196CF31D10528
:10115000D1F780910A0190910B01019701F58091DF
:101160000C0190910D01892BD1F480910E01909189
:101170000F010197A1F48091100190911101019745
:1011800071F48091120190911301019741F4C0E034
:10119000D0E00E94EB002196CF31D105D1F78091AC
:1011A0000A0190910B01892BE1F480910C0190913F
:1011B0000D01892BB1F480910E0190910F01892BC3
:1011C00081F48091100190911101892B51F480914B
:1011D000120190911301892B21F40E945E000E945C
:1011E0007D0180910A0190910B010197E1F48091BA
:1011F0000C0190910D01892BB1F480910E01909119
:101200000F01892B81F48091100190911101892B9C
:1012100051F48091120190911301892B21F40E94C5
:101220005E000E947D0180910A0190910B01892B43
:10123000E1F480910C0190910D01892BB1F4809122
:101240000E0190910F01892B81F4809110019091F2
:101250001101892B51F48091120190911301019792
:1012600021F40E945E000E947D0180910A0190910C
:101270000B010197E1F480910C0190910D01892BF4
:10128000B1F480910E0190910F01019781F480914A
:10129000100190911101019751F4809112019091E8
:1012A0001301019721F40E945E000E947D0180914C
:1012B0000A0190910B01892BE1F480910C0190912E
:1012C0000D01892BB1F480910E0190910F01892BB2
:1012D00081F48091100190911101019751F4809156
:1012E000120190911301892B21F40E945E000E944B
:1012F0007D0180910A0190910B01892BF1F480917D
:101300000C0190910D01892BC1F480910E019091F7
:101310000F01892B91F48091100190911101019797
:1013200061F48091120190911301019731F48BB116
:1013300088668BB92B9A0E947D0180910A01909159
:101340000B01892BF1F480910C0190910D01892BF7
:10135000C1F480910E0190910F01019791F4809159
:10136000100190911101019761F480911201909107
:101370001301019731F48BB188668BB92B9A0E94C7
:101380007D0180910C0190910D01892B31F08091AC
:10139000100190911101892B11F40E945E0080913F
:1013A0000A0190910B01892BE1F480910C0190913D
:1013B0000D010197B1F480910E0190910F01892BDD
:1013C00081F48091100190911101892B51F4809149
:1013D000120190911301019721F40E945E000E9476
:1013E0007D0180910A0190910B01892BE1F480919C
:1013F0000C0190910D010197B1F480910E01909133
:101400000F01892B81F48091100190911101892B9A
:1014100051F48091120190911301892B21F40E94C3
:101420005E000E947D0180910A0190910B01892B41
:10143000E1F480910C0190910D010197B1F480913C
:101440000E0190910F01019781F48091100190910C
:101450001101892B51F48091120190911301892B74
:1014600021F40E945E000E947D0180910A0190910A
:101470000B01892BE1F480910C0190910D010197F2
:10148000B1F480910E0190910F01019781F4809148
:10149000100190911101892B51F4809112019091CA
:1014A0001301019721F40E945E000E947D0180914A
:1014B0000A0190910B01892B09F040C080910C0129
:1014C00090910D010197D1F580910E0190910F013E
:1014D0000197A1F58091100190911101019771F58B
:1014E0008091120190911301892B41F58BB188668F
:1014F0008BB92B9A8CE291E09093010180930001CB
:10150000C0E0D0E009C00E945E000E947D018BB166
:1015100088668BB92B9A21968091000190910101E8
:101520008C179D0784F7C0E0D0E00E94EB00219665
:1015300081E0CE39D807C9F70E947D010E94E501FC
:10154000209116013091170180911401909115019D
:101550002817390724F08BB188668BB92B9ADF9155
:10156000CF9108956F927F928F929F92AF92BF9288
:10157000CF92DF92EF92FF920F931F93CF93DF935F
:1015800083B1E82EFF2480E1E822FF2483B1082FF5
:1015900010E00270107083B1C82FD0E0C072D0701C
:1015A00084B18D7C84B9239A8AB188668AB987B15F
:1015B000807E87B986B18F6186B983B18D7C83B90E
:1015C0008BB188668BB92B9A0E94310C8CE090E02D
:1015D0000E94820C81E090E00E94820C80911401B4
:1015E000909115016EE171E04AE050E00E949F0C7D
:1015F00081E090E00E94820C8EE191E00E946E0CEE
:1016000086E060E00E947A0C8091160190911701AB
:101610006CE171E04AE050E00E949F0C8CE191E0A7
:101620000E946E0C88249924AA24BB24CC24DD2497
:101630003CED632E35E0732E02C08824992483B1DB
:1016400090E0827090708017910719F4AA24BB244F
:101650000AC0199903C021E0A22EB12C83B1082F32
:1016600010E002701070C3010197F1F791E0A91624
:10167000B104E9F4809114019091150197FD17C010
:10168000019790931501809314016EE171E04AE097
:1016900050E00E949F0C80E060E00E947A0C81E0A4
:1016A00090E00E94820C8EE191E00E946E0C83B16A
:1016B00090E0807290708C179D0719F4CC24DD2483
:1016C0000AC01D9903C091E0C92ED12C83B1C82F47
:1016D000D0E0C072D070C3010197F1F781E0C81665
:1016E000D104D9F480911401909115010196909341
:1016F0001501809314016EE171E04AE050E00E9410
:101700009F0C80E060E00E947A0C81E090E00E94F3
:10171000820C8EE191E00E946E0C83B190E08071AA
:1017200090708E159F0509F488CF1C9903C081E045
:10173000882E912C83B191E08916910431F0E82E26
:10174000FF2480E1E822FF247ACF12E481E063E005
:101750000E947A0C82E091E00E946E0C0E947D0152
:101760000E9465088BB188668BB92B9A812F8A9568
:10177000F1F7ECCF219A249A259A579A0895219847
:1017800024982598579808955C9A86E08A95F1F7F1
:1017900000C089B1881F8827881F880F880F880F8D
:1017A0001D9984601C998260199981605C980895E4
:1017B00080FF0CC0299A81FF0BC02C9A82FF0AC0BF
:1017C0002D9A83FF09C05F9A0C94C40B2998F3CF1C
:1017D0002C98F4CF2D98F5CF5F98F6CFCF93DF9369
:1017E0005A980E94BF0B289A0E94C40BC82F0E94CF
:1017F000C40B90E1C99FE00111248C2B87FDF0CF31
:10180000DF91CF910895CF93C82F0E94EE0B2898B7
:101810005A980E94BA0B8C2F82958F700E94D80B19
:101820008C2F8F700E94D80B0E94BF0B8FE0CF913E
:101830000C94D80BCF93C82F0E94EE0B28985A9A7D
:101840000E94BA0B8C2F82958F700E94D80B8C2F20
:101850008F700E94D80B0E94BF0B8FE0CF910C9429
:10186000D80B28985A985C98529A209A549A0E94B9
:10187000BA0B2FE58AEE90E0215080409040E1F7CE
:1018800000C0000083E00E94D80B8FE295E701972B
:10189000F1F700C0000083E00E94D80B8FE097E2D0
:1018A0000197F1F700C0000083E00E94D80B8FE0A1
:1018B00097E20197F1F700C0000082E00E94D80B88
:1018C0000E94EE0B88E20E94030C88E00E94030C49
:1018D00081E00E94030C86E00C94030CCF93DF930D
:1018E000EC018991811103C0DF91CF9108950E948D
:1018F0001A0CF7CF90E4699FB0011124862B806801
:101900000C94030C0C94030C8F708A3018F4805DD7
:101910000C941A0C895CFCCFCF93C82F82958F70E2
:101920000E94840C8C2FCF910C94840CCF93C82FE1
:10193000892F0E948C0C8C2FCF910C948C0CFB0166
:101940009F01E8944230C4F04532B4F44A3029F49F
:1019500097FB1EF4909581959F4F642F77270E94E7
:10196000D00C805D8A330CF0895D8193CB010097A8
:10197000A1F716F45DE251931082C9010C94C00CDA
:10198000DC01FC01672F71917723E1F7329704C0E6
:101990007C916D9370836291AE17BF07C8F3089571
:1019A000AA1BBB1B51E107C0AA1FBB1FA617B70785
:1019B00010F0A61BB70B881F991F5A95A9F78095A1
:0C19C0009095BC01CD010895F894FFCF74
:0A19CC0058026262626262000100CC
:00000001FF
